S00B00005450342E7372656341
S11300000C9434000C9451000C9451000C94510045
S11300100C9451000C9451000C9451000C94510018
S11300200C9451000C9451000C9451000C94510008
S11300300C9451000C9451000C9451000C945100F8
S11300400C9451000C9451000C94C9000C94510070
S11300500C9451000C9451000C9451000C945100D8
S11300600C9451000C94510011241FBECFEFD8E022
S1130070DEBFCDBF11E0A0E0B1E0E6E5F2E002C0F2
S113008005900D92A633B107D9F721E0A6E3B1E0BC
S113009001C01D92A733B207E1F70E9453000C94EC
S11300A029010C940000ECE7F0E0808183648083F4
S11300B0CAE7D0E088818768888387B1877F87B95A
S11300C081E080937E00E0E8F0E08081816F8083AE
S11300D0E1E8F0E0808184608083109289001092CE
S11300E0880010928B0010928A0084B1866284B9D1
S11300F087E60E94E9000E94F9000E94F3000E9432
S1130100FF00789481E091E00E940D018881806471
S1130110888320E030E060E0862F90E04091840006
S1130120509185004817590720F485B18F7D85B912
S113013003C085B1806285B980917A0084FF10C0C4
S1130140209178003091790036952795369527953A
S1130150EAE7F0E08081806180838081806480832D
S113016080910001873461F0823519F0823461F4A2
S113017002C0622F09C0309389002093880004C014
S113018030938B0020938A0085E58A95F1F700006F
S1130190C3CF1F920F920FB60F9211248F938091A9
S11301A0C6008093360180913601823541F08091FA
S11301B03601873421F080913601823421F4809114
S11301C03601809300018F910F900FBE0F901F9006
S11301D018951092C10096E09093C2001092C50049
S11301E08093C4000895E1ECF0E08081886080830E
S11301F00895E1ECF0E08081806180830895E1EC72
S1130200F0E080818068808308958091C00085FF3C
S1130210FCCF08958093C6000895EF92FF920F9348
S11302201F93CF937C01C0E007C00E940501F80131
S113023080810E940A01CF5F87010C0F111DF80114
S113024080818111F2CFCF911F910F91FF90EF9098
S10902500895F894FFCFAD
S1130256524269656E76656E69646F2E20507265CA
S113026673696F6E6520522F472F42207061726149
S1130276206D6F6469666963617220656C20636FC3
S10902866C6F720D0A000A
S9030000FC
